{
  "contractName": "CrowdFunding",
  "abi": [
    {
      "inputs": [],
      "payable": false,
      "stateMutability": "nonpayable",
      "type": "constructor"
    },
    {
      "anonymous": false,
      "inputs": [
        {
          "indexed": true,
          "internalType": "address",
          "name": "_addres",
          "type": "address"
        }
      ],
      "name": "log_contract_made",
      "type": "event"
    },
    {
      "anonymous": false,
      "inputs": [
        {
          "indexed": true,
          "internalType": "address",
          "name": "_addres",
          "type": "address"
        },
        {
          "indexed": false,
          "internalType": "uint256",
          "name": "amount",
          "type": "uint256"
        }
      ],
      "name": "log_deposit_made",
      "type": "event"
    },
    {
      "anonymous": false,
      "inputs": [
        {
          "indexed": true,
          "internalType": "address",
          "name": "_addres",
          "type": "address"
        },
        {
          "indexed": false,
          "internalType": "uint256",
          "name": "amount",
          "type": "uint256"
        }
      ],
      "name": "log_transfer_made",
      "type": "event"
    },
    {
      "anonymous": false,
      "inputs": [
        {
          "indexed": true,
          "internalType": "address",
          "name": "_addres",
          "type": "address"
        },
        {
          "indexed": false,
          "internalType": "uint256",
          "name": "amount",
          "type": "uint256"
        }
      ],
      "name": "log_withdraw_made",
      "type": "event"
    },
    {
      "constant": true,
      "inputs": [],
      "name": "is_funding_goal_reached",
      "outputs": [
        {
          "internalType": "bool",
          "name": "",
          "type": "bool"
        }
      ],
      "payable": false,
      "stateMutability": "view",
      "type": "function"
    },
    {
      "constant": false,
      "inputs": [],
      "name": "deposit",
      "outputs": [
        {
          "internalType": "bool",
          "name": "",
          "type": "bool"
        }
      ],
      "payable": true,
      "stateMutability": "payable",
      "type": "function"
    },
    {
      "constant": false,
      "inputs": [
        {
          "internalType": "uint256",
          "name": "withdraw_amount",
          "type": "uint256"
        }
      ],
      "name": "withdraw",
      "outputs": [
        {
          "internalType": "uint256",
          "name": "remaining_funding",
          "type": "uint256"
        }
      ],
      "payable": false,
      "stateMutability": "nonpayable",
      "type": "function"
    },
    {
      "constant": false,
      "inputs": [
        {
          "internalType": "contract DistributeFunding",
          "name": "distribute_funding",
          "type": "address"
        }
      ],
      "name": "transfer_funding",
      "outputs": [
        {
          "internalType": "bool",
          "name": "",
          "type": "bool"
        }
      ],
      "payable": true,
      "stateMutability": "payable",
      "type": "function"
    }
  ],
  "bytecode": "0x608060405234801561001057600080fd5b50336000806101000a81548173ffffffffffffffffffffffffffffffffffffffff021916908373ffffffffffffffffffffffffffffffffffffffff160217905550600060038190555060006002819055503373ffffffffffffffffffffffffffffffffffffffff167f82cd4bf160726c48305035aa856ea07be29f516d55507e3319df53573e8c59a360405160405180910390a2610478806100b36000396000f3fe60806040526004361061003f5760003560e01c80630d4beb81146100445780630fc2d308146100a05780632e1a7d4d146100cf578063d0e30db01461011e575b600080fd5b6100866004803603602081101561005a57600080fd5b81019080803573ffffffffffffffffffffffffffffffffffffffff169060200190929190505050610140565b604051808215151515815260200191505060405180910390f35b3480156100ac57600080fd5b506100b56101b8565b604051808215151515815260200191505060405180910390f35b3480156100db57600080fd5b50610108600480360360208110156100f257600080fd5b81019080803590602001909291905050506101de565b6040518082815260200191505060405180910390f35b610126610350565b604051808215151515815260200191505060405180910390f35b600061014a6101b8565b15156001151514156101ae5760008290508073ffffffffffffffffffffffffffffffffffffffff166108fc6003549081150290604051600060405180830381858888f193505050501580156101a3573d6000803e3d6000fd5b5060019150506101b3565b600090505b919050565b60006801158e460913d0000060035410156101d657600090506101db565b600190505b90565b6000600160003373ffffffffffffffffffffffffffffffffffffffff1673ffffffffffffffffffffffffffffffffffffffff1681526020019081526020016000205482116103095781600160003373ffffffffffffffffffffffffffffffffffffffff1673ffffffffffffffffffffffffffffffffffffffff168152602001908152602001600020600082825403925050819055503373ffffffffffffffffffffffffffffffffffffffff166108fc839081150290604051600060405180830381858888f193505050501580156102b9573d6000803e3d6000fd5b503373ffffffffffffffffffffffffffffffffffffffff167fc12a90e3817c9a9744390e7a398a264140ca6a572203d44f1cf3c1e4d0c66a6f836040518082815260200191505060405180910390a25b600160003373ffffffffffffffffffffffffffffffffffffffff1673ffffffffffffffffffffffffffffffffffffffff168152602001908152602001600020549050919050565b600061035a6101b8565b151560011515141561036f5760009050610440565b670de0b6b3a76400003410156103885760009050610440565b3460036000828254019250508190555034600160003373ffffffffffffffffffffffffffffffffffffffff1673ffffffffffffffffffffffffffffffffffffffff1681526020019081526020016000208190555060016002600082825401925050819055503373ffffffffffffffffffffffffffffffffffffffff167f53bf45850fa488d6baa4daea7deeae3231c8fc05561b8b00f845f308928abaa6346040518082815260200191505060405180910390a2600190505b9056fea265627a7a72315820e6c7b419b8ae80304f1a9db55d0b181cd14722c4a8bc59db5884f0641f7d221164736f6c63430005100032",
  "source": "pragma solidity >=0.4.21 <0.7.0;\n\nimport \"./DistributeFunding.sol\";\n\ncontract CrowdFunding\n{\n    address private owner;\n\n    uint constant private FUNDING_GOAL = 20 ether;\n\n    mapping (address => uint) private funders;\n    uint private num_of_funders;\n    uint private current_funding;\n\n    event log_contract_made(address indexed _addres);\n    event log_deposit_made(address indexed _addres, uint amount);\n    event log_withdraw_made(address indexed _addres, uint amount);\n    event log_transfer_made(address indexed _addres, uint amount);\n\n    constructor() public\n    {\n        owner = msg.sender;\n\n        current_funding = 0;\n        num_of_funders = 0;\n\n        emit log_contract_made(msg.sender);\n    }\n\n    function is_funding_goal_reached() public view returns (bool)\n    {\n        if (current_funding < FUNDING_GOAL)\n        {\n            return false;\n        }\n\n        return true;\n    }\n\n    function deposit() public payable returns (bool)\n    {\n        if (true == is_funding_goal_reached())\n        {\n            return false;\n        }\n\n        if (msg.value < 1 ether)\n        {\n            return false;\n        }\n\n        current_funding += msg.value;\n        funders[msg.sender] = msg.value;\n        num_of_funders += 1;\n\n        emit log_deposit_made(msg.sender, msg.value);\n\n        return true;\n    }\n\n    function withdraw(uint withdraw_amount) public returns (uint remaining_funding)\n    {\n        if (withdraw_amount <= funders[msg.sender])\n        {\n            funders[msg.sender] -= withdraw_amount;\n            msg.sender.transfer(withdraw_amount);\n            emit log_withdraw_made(msg.sender, withdraw_amount);\n        }\n\n        return funders[msg.sender];\n    }\n\n    function transfer_funding(DistributeFunding distribute_funding) external payable returns (bool)\n    {\n        if (true == is_funding_goal_reached())\n        {\n            address payable addr = address(uint160(address(distribute_funding)));\n            addr.transfer(current_funding);\n            return true;\n        }\n\n        return false;\n    }\n}\n",
  "sourcePath": "/home/narcis/Documents/Computer Science/Faculty/Blockchain/simple_funding/contracts/CrowdFunding.sol",
  "compiler": {
    "name": "solc",
    "version": "0.5.16+commit.9c3226ce.Emscripten.clang"
  },
  "schemaVersion": "3.1.0",
  "updatedAt": "2020-05-26T15:43:39.509Z",
  "networkType": "ethereum",
  "devdoc": {
    "methods": {}
  },
  "userdoc": {
    "methods": {}
  }
}