{
  "contractName": "DistributeFunding",
  "abi": [
    {
      "inputs": [],
      "payable": false,
      "stateMutability": "nonpayable",
      "type": "constructor"
    },
    {
      "anonymous": false,
      "inputs": [
        {
          "indexed": true,
          "internalType": "address",
          "name": "_addres",
          "type": "address"
        }
      ],
      "name": "log_contract_made",
      "type": "event"
    },
    {
      "anonymous": false,
      "inputs": [
        {
          "indexed": false,
          "internalType": "uint256",
          "name": "amount",
          "type": "uint256"
        }
      ],
      "name": "log_funding_made",
      "type": "event"
    },
    {
      "payable": true,
      "stateMutability": "payable",
      "type": "fallback"
    },
    {
      "constant": true,
      "inputs": [],
      "name": "get_funding",
      "outputs": [
        {
          "internalType": "uint256",
          "name": "",
          "type": "uint256"
        }
      ],
      "payable": false,
      "stateMutability": "view",
      "type": "function"
    }
  ],
  "bytecode": "0x608060405234801561001057600080fd5b50336000806101000a81548173ffffffffffffffffffffffffffffffffffffffff021916908373ffffffffffffffffffffffffffffffffffffffff16021790555060006001819055503373ffffffffffffffffffffffffffffffffffffffff167f82cd4bf160726c48305035aa856ea07be29f516d55507e3319df53573e8c59a360405160405180910390a26085806100aa6000396000f3fe608060405260043610601c5760003560e01c80630682e2d714601e575b005b348015602957600080fd5b5060306046565b6040518082815260200191505060405180910390f35b600060015490509056fea265627a7a723158201e872c6f065f4b59b8b350e1796786f398973864f565cb6d23799a08554d188f64736f6c63430005100032",
  "source": "pragma solidity >=0.4.21 <0.7.0;\n\ncontract DistributeFunding\n{\n    address private owner;\n\n    uint private funding;\n\n    event log_contract_made(address indexed _addres);\n    event log_funding_made(uint amount);\n\n    constructor () public\n    {\n        owner = msg.sender;\n        funding = 0;\n\n        emit log_contract_made(msg.sender);\n    }\n\n    function get_funding() public view returns (uint)\n    {\n        return funding;\n    }\n\n    function() external payable\n    {\n        // funding = msg.value;\n        // emit log_funding_made(funding);\n    }\n}\n",
  "sourcePath": "/home/narcis/Documents/Computer Science/Faculty/Blockchain/simple_funding/contracts/DistributeFunding.sol",
  "compiler": {
    "name": "solc",
    "version": "0.5.16+commit.9c3226ce.Emscripten.clang"
  },
  "schemaVersion": "3.1.0",
  "updatedAt": "2020-05-26T15:43:39.527Z",
  "networkType": "ethereum",
  "devdoc": {
    "methods": {}
  },
  "userdoc": {
    "methods": {}
  }
}